{
  "contractName": "ExerciseC6D",
  "abi": [
    {
      "inputs": [],
      "payable": false,
      "stateMutability": "nonpayable",
      "type": "constructor"
    },
    {
      "anonymous": false,
      "inputs": [
        {
          "indexed": false,
          "internalType": "string",
          "name": "flight",
          "type": "string"
        },
        {
          "indexed": false,
          "internalType": "uint256",
          "name": "timestamp",
          "type": "uint256"
        },
        {
          "indexed": false,
          "internalType": "uint8",
          "name": "status",
          "type": "uint8"
        },
        {
          "indexed": false,
          "internalType": "bool",
          "name": "verified",
          "type": "bool"
        }
      ],
      "name": "FlightStatusInfo",
      "type": "event"
    },
    {
      "anonymous": false,
      "inputs": [
        {
          "indexed": false,
          "internalType": "uint8",
          "name": "index",
          "type": "uint8"
        },
        {
          "indexed": false,
          "internalType": "string",
          "name": "flight",
          "type": "string"
        },
        {
          "indexed": false,
          "internalType": "uint256",
          "name": "timestamp",
          "type": "uint256"
        }
      ],
      "name": "OracleRequest",
      "type": "event"
    },
    {
      "constant": true,
      "inputs": [],
      "name": "REGISTRATION_FEE",
      "outputs": [
        {
          "internalType": "uint256",
          "name": "",
          "type": "uint256"
        }
      ],
      "payable": false,
      "stateMutability": "view",
      "type": "function"
    },
    {
      "constant": false,
      "inputs": [],
      "name": "registerOracle",
      "outputs": [],
      "payable": true,
      "stateMutability": "payable",
      "type": "function"
    },
    {
      "constant": true,
      "inputs": [
        {
          "internalType": "address",
          "name": "account",
          "type": "address"
        }
      ],
      "name": "getOracle",
      "outputs": [
        {
          "internalType": "uint8[3]",
          "name": "",
          "type": "uint8[3]"
        }
      ],
      "payable": false,
      "stateMutability": "view",
      "type": "function"
    },
    {
      "constant": false,
      "inputs": [
        {
          "internalType": "string",
          "name": "flight",
          "type": "string"
        },
        {
          "internalType": "uint256",
          "name": "timestamp",
          "type": "uint256"
        }
      ],
      "name": "fetchFlightStatus",
      "outputs": [],
      "payable": false,
      "stateMutability": "nonpayable",
      "type": "function"
    },
    {
      "constant": false,
      "inputs": [
        {
          "internalType": "uint8",
          "name": "index",
          "type": "uint8"
        },
        {
          "internalType": "string",
          "name": "flight",
          "type": "string"
        },
        {
          "internalType": "uint256",
          "name": "timestamp",
          "type": "uint256"
        },
        {
          "internalType": "uint8",
          "name": "statusId",
          "type": "uint8"
        }
      ],
      "name": "submitOracleResponse",
      "outputs": [],
      "payable": false,
      "stateMutability": "nonpayable",
      "type": "function"
    },
    {
      "constant": true,
      "inputs": [
        {
          "internalType": "string",
          "name": "flight",
          "type": "string"
        },
        {
          "internalType": "uint256",
          "name": "timestamp",
          "type": "uint256"
        }
      ],
      "name": "viewFlightStatus",
      "outputs": [
        {
          "internalType": "uint8",
          "name": "",
          "type": "uint8"
        }
      ],
      "payable": false,
      "stateMutability": "view",
      "type": "function"
    }
  ],
  "bytecode": "0x608060405260008060146101000a81548160ff021916908360ff16021790555034801561002b57600080fd5b50336000806101000a81548173ffffffffffffffffffffffffffffffffffffffff021916908373ffffffffffffffffffffffffffffffffffffffff1602179055506110cc8061007b6000396000f3fe6080604052600436106100555760003560e01c806310d3d22e1461005a578063339d2590146100e757806364b4f751146100f15780637b91ce381461011c5780638ec0268b146101ac578063dc7044e114610256575b600080fd5b34801561006657600080fd5b506100a96004803603602081101561007d57600080fd5b81019080803573ffffffffffffffffffffffffffffffffffffffff169060200190929190505050610300565b6040518082600360200280838360005b838110156100d45780820151818401526020810190506100b9565b5050505090500191505060405180910390f35b6100ef610472565b005b3480156100fd57600080fd5b50610106610555565b6040518082815260200191505060405180910390f35b34801561012857600080fd5b506101aa6004803603604081101561013f57600080fd5b810190808035906020019064010000000081111561015c57600080fd5b82018360208201111561016e57600080fd5b8035906020019184600183028401116401000000008311171561019057600080fd5b909192939192939080359060200190929190505050610561565b005b3480156101b857600080fd5b50610254600480360360808110156101cf57600080fd5b81019080803560ff169060200190929190803590602001906401000000008111156101f957600080fd5b82018360208201111561020b57600080fd5b8035906020019184600183028401116401000000008311171561022d57600080fd5b909192939192939080359060200190929190803560ff1690602001909291905050506106e6565b005b34801561026257600080fd5b506102e46004803603604081101561027957600080fd5b810190808035906020019064010000000081111561029657600080fd5b8201836020820111156102a857600080fd5b803590602001918460018302840111640100000000831117156102ca57600080fd5b909192939192939080359060200190929190505050610bdc565b604051808260ff1660ff16815260200191505060405180910390f35b610308610f58565b6000809054906101000a900473ffffffffffffffffffffffffffffffffffffffff1673ffffffffffffffffffffffffffffffffffffffff163373ffffffffffffffffffffffffffffffffffffffff16146103ca576040517f08c379a000000000000000000000000000000000000000000000000000000000815260040180806020018281038252601c8152602001807f43616c6c6572206973206e6f7420636f6e7472616374206f776e65720000000081525060200191505060405180910390fd5b600160008373ffffffffffffffffffffffffffffffffffffffff1673ffffffffffffffffffffffffffffffffffffffff168152602001908152602001600020600380602002604051908101604052809291908260038015610466576020028201916000905b82829054906101000a900460ff1660ff168152602001906001019060208260000104928301926001038202915080841161042f5790505b50505050509050919050565b670de0b6b3a76400003410156104f0576040517f08c379a000000000000000000000000000000000000000000000000000000000815260040180806020018281038252601c8152602001807f526567697374726174696f6e206665652069732072657175697265640000000081525060200191505060405180910390fd5b6104f8610f58565b61050133610cdd565b905080600160003373ffffffffffffffffffffffffffffffffffffffff1673ffffffffffffffffffffffffffffffffffffffff168152602001908152602001600020906003610551929190610f7a565b5050565b670de0b6b3a764000081565b600061056c33610e69565b9050600081858585604051602001808560ff1660ff1660f81b81526001018484808284378083019250505082815260200194505050505060405160208183030381529060405280519060200120905060405180604001604052803373ffffffffffffffffffffffffffffffffffffffff168152602001600115158152506002600083815260200190815260200160002060008201518160000160006101000a81548173ffffffffffffffffffffffffffffffffffffffff021916908373ffffffffffffffffffffffffffffffffffffffff16021790555060208201518160000160146101000a81548160ff0219169083151502179055509050507f33cc1dc817476a865477242f5d168e635bcd483a67e12e1ebde698e1a9ec023a82868686604051808560ff1660ff168152602001806020018381526020018281038252858582818152602001925080828437600081840152601f19601f8201169050808301925050509550505050505060405180910390a15050505050565b8460ff16600160003373ffffffffffffffffffffffffffffffffffffffff1673ffffffffffffffffffffffffffffffffffffffff16815260200190815260200160002060006003811061073557fe5b602091828204019190069054906101000a900460ff1660ff1614806107bf57508460ff16600160003373ffffffffffffffffffffffffffffffffffffffff1673ffffffffffffffffffffffffffffffffffffffff1681526020019081526020016000206001600381106107a457fe5b602091828204019190069054906101000a900460ff1660ff16145b8061082f57508460ff16600160003373ffffffffffffffffffffffffffffffffffffffff1673ffffffffffffffffffffffffffffffffffffffff16815260200190815260200160002060026003811061081457fe5b602091828204019190069054906101000a900460ff1660ff16145b610884576040517f08c379a00000000000000000000000000000000000000000000000000000000081526004018080602001828103825260238152602001806110756023913960400191505060405180910390fd5b600085858585604051602001808560ff1660ff1660f81b8152600101848480828437808301925050508281526020019450505050506040516020818303038152906040528051906020012090506002600082815260200190815260200160002060000160149054906101000a900460ff1661094a576040517f08c379a00000000000000000000000000000000000000000000000000000000081526004018080602001828103825260308152602001806110456030913960400191505060405180910390fd5b6002600082815260200190815260200160002060010160008360ff1660ff1681526020019081526020016000203390806001815401808255809150509060018203906000526020600020016000909192909190916101000a81548173ffffffffffffffffffffffffffffffffffffffff021916908373ffffffffffffffffffffffffffffffffffffffff1602179055505060036002600083815260200190815260200160002060010160008460ff1660ff1681526020019081526020016000208054905010610b4d577f2f1c265a6c6abb151887cacc1fd693a4c8dc417f3f955372b3632cdbc5ed7a4185858585600160405180806020018581526020018460ff1660ff168152602001831515151581526020018281038252878782818152602001925080828437600081840152601f19601f820116905080830192505050965050505050505060405180910390a160008585856040516020018084848082843780830192505050828152602001935050505060405160208183030381529060405280519060200120905060405180604001604052806001151581526020018460ff168152506003600083815260200190815260200160002060008201518160000160006101000a81548160ff02191690831515021790555060208201518160000160016101000a81548160ff021916908360ff16021790555090505050610bd4565b7f2f1c265a6c6abb151887cacc1fd693a4c8dc417f3f955372b3632cdbc5ed7a4185858585600060405180806020018581526020018460ff1660ff168152602001831515151581526020018281038252878782818152602001925080828437600081840152601f19601f820116905080830192505050965050505050505060405180910390a15b505050505050565b600080848484604051602001808484808284378083019250505082815260200193505050506040516020818303038152906040528051906020012090506003600082815260200190815260200160002060000160009054906101000a900460ff16610caf576040517f08c379a000000000000000000000000000000000000000000000000000000000815260040180806020018281038252601b8152602001807f466c6967687420737461747573206e6f7420617661696c61626c65000000000081525060200191505060405180910390fd5b6003600082815260200190815260200160002060000160019054906101000a900460ff169150509392505050565b610ce5610f58565b610ced610f58565b610cf683610e69565b81600060038110610d0357fe5b602002019060ff16908160ff168152505080600060038110610d2157fe5b602002015181600160038110610d3357fe5b602002019060ff16908160ff16815250505b80600060038110610d5257fe5b602002015160ff1681600160038110610d6757fe5b602002015160ff161415610da157610d7e83610e69565b81600160038110610d8b57fe5b602002019060ff16908160ff1681525050610d45565b80600160038110610dae57fe5b602002015181600260038110610dc057fe5b602002019060ff16908160ff16815250505b80600060038110610ddf57fe5b602002015160ff1681600260038110610df457fe5b602002015160ff161480610e2f575080600160038110610e1057fe5b602002015160ff1681600260038110610e2557fe5b602002015160ff16145b15610e6057610e3d83610e69565b81600260038110610e4a57fe5b602002019060ff16908160ff1681525050610dd2565b80915050919050565b600080600a905060008160ff166000601481819054906101000a900460ff168092919060010191906101000a81548160ff021916908360ff16021790555060ff1643034085604051602001808381526020018273ffffffffffffffffffffffffffffffffffffffff1673ffffffffffffffffffffffffffffffffffffffff1660601b8152601401925050506040516020818303038152906040528051906020012060001c81610f1457fe5b06905060fa600060149054906101000a900460ff1660ff161115610f4e5760008060146101000a81548160ff021916908360ff1602179055505b8092505050919050565b6040518060600160405280600390602082028038833980820191505090505090565b826003601f016020900481019282156110035791602002820160005b83821115610fd457835183826101000a81548160ff021916908360ff1602179055509260200192600101602081600001049283019260010302610f96565b80156110015782816101000a81549060ff0219169055600101602081600001049283019260010302610fd4565b505b5090506110109190611014565b5090565b61104191905b8082111561103d57600081816101000a81549060ff02191690555060010161101a565b5090565b9056fe666c69676874206f722074696d657374616d7020646f206e6f74206d61746368206f7261636c6520726573706f6e7365496e64657820646f6573206e6f74206d61746368206f7261636c652072657175657374a265627a7a723158202f3f8ffab3b49371d1fd4eaa865558482cbf7d4ad06774bf658425919b032c3064736f6c63430005100032",
  "source": "pragma solidity ^0.5.16;\n\n// It's important to avoid vulnerabilities due to numeric overflow bugs\n// OpenZeppelin's SafeMath library, when used correctly, protects agains such bugs\n// More info: https://www.nccgroup.trust/us/about-us/newsroom-and-events/blog/2018/november/smart-contract-insecurity-bad-arithmetic/\n\nimport \"../../node_modules/openzeppelin-solidity/contracts/math/SafeMath.sol\";\n\n\ncontract ExerciseC6D {\n    using SafeMath for uint256; // Allow SafeMath functions to be called for all uint256 types (similar to \"prototype\" in Javascript)\n\n  \n    address private contractOwner;                  // Account used to deploy contract\n\n\n    // Incremented to add pseudo-randomness at various points\n    uint8 private nonce = 0;    \n\n    // Fee to be paid when registering oracle\n    uint256 public constant REGISTRATION_FEE = 1 ether;\n\n    // Number of oracles that must respond for valid status\n    uint256 private constant MIN_RESPONSES = 3;\n\n    // Status codes returned by oracles\n    uint8 private constant ON_TIME = 10;\n    uint8 private constant NOT_ON_TIME = 99;\n\n    // Track all registered oracles\n    mapping(address => uint8[3]) private oracles;\n\n    // Model for responses from oracles\n    struct ResponseInfo {\n        address requester;                              // Account that requested status\n        bool isOpen;                                    // If open, oracle responses are accepted\n        mapping(uint8 => address[]) responses;          // Mapping key is the status code reported\n                                                        // This lets us group responses and identify\n                                                        // the response that majority of the oracles\n                                                        // submit\n    }\n\n    // Track all oracle responses\n    // Key = hash(index, flight, timestamp)\n    mapping(bytes32 => ResponseInfo) private oracleResponses;\n\n\n    // Event fired each time an oracle submits a response\n    event FlightStatusInfo(string flight, uint256 timestamp, uint8 status, bool verified);\n\n    // Flight data persisted forever\n    struct FlightStatus {\n        bool hasStatus;\n        uint8 status;        \n    }\n    mapping(bytes32 => FlightStatus) flights;\n\n\n\n\n    constructor\n                (\n                )\n                public \n    {\n        contractOwner = msg.sender;\n    }\n   \n    /********************************************************************************************/\n    /*                                       FUNCTION MODIFIERS                                 */\n    /********************************************************************************************/\n\n    modifier requireContractOwner()\n    {\n        require(msg.sender == contractOwner, \"Caller is not contract owner\");\n        _;\n    }\n\n    /********************************************************************************************/\n    /*                                     SMART CONTRACT FUNCTIONS                             */\n    /********************************************************************************************/\n\n    /*********************************** BEGIN: Oracle Registration ***********************************/\n\n    // STAGE ONE: ORACLES REGISTER WITH THE SMART CONTRACT\n\n    // Register an oracle with the contract\n    function registerOracle\n                            (\n                            )\n                            external\n                            payable\n    {\n        // CODE EXERCISE 1: Require registration fee\n        require(msg.value >= REGISTRATION_FEE, \"Registration fee is required\");\n\n        // CODE EXERCISE 1: Generate three random indexes (range 0-9) using generateIndexes for the calling oracle\n        uint8[3] memory indexes = generateIndexes(msg.sender);\n\n        // CODE EXERCISE 1: Assign the indexes to the oracle and save to the contract state\n        oracles[msg.sender] = indexes;\n    }\n\n    function getOracle\n                        (\n                            address account\n                        )\n                        external\n                        view\n                        requireContractOwner\n                        returns(uint8[3] memory)\n    {\n        return oracles[account];\n    }\n\n    /************************************ END: Oracle Registration ************************************/\n\n\n\n    /************************************ BEGIN: Oracle Data Request ************************************/\n\n    // STAGE TWO: ORACLES ARE RANDOMLY CHOSEN TO FETCH INFORMATION\n\n\n    // Event fired when flight status request is submitted\n    // Oracles track this and if they have a matching index\n    // they fetch data and submit a response\n    event OracleRequest(uint8 index, string flight, uint256 timestamp);\n\n\n    // Generate a request\n    function fetchFlightStatus\n                        (\n                            string calldata flight,\n                            uint256 timestamp                            \n                        )\n                        external\n    {\n        // Generate a number between 0 - 9 to determine which oracles may respond\n\n        // CODE EXERCISE 2: Replace the hard-coded value of index with a random index based on the calling account\n        uint8 index = getRandomIndex(msg.sender);  /* Replace code here */\n\n\n        // Generate a unique key for storing the request\n        bytes32 key = keccak256(abi.encodePacked(index, flight, timestamp));\n        oracleResponses[key] = ResponseInfo({\n                                                requester: msg.sender,\n                                                isOpen: true\n                                            });\n\n        // CODE EXERCISE 2: Notify oracles that match the index value that they need to fetch flight status\n        /* Enter code here */\n        emit OracleRequest(index, flight, timestamp);\n\n    }\n\n    /************************************ END: Oracle Data Request ************************************/\n\n\n    /*********************************** BEGIN: Oracle Callback ***********************************/\n\n\n    // STAGE THREE: ORACLES SUBMIT INFORMATION\n\n    // Called by oracle when a response is available to an outstanding request\n    // For the response to be accepted, there must be a pending request that is open\n    // and matches one of the three Indexes randomly assigned to the oracle at the\n    // time of registration (i.e. uninvited oracles are not welcome)\n    function submitOracleResponse\n                        (\n                            uint8 index,\n                            string calldata flight,\n                            uint256 timestamp,\n                            uint8 statusId\n                        )\n                        external\n    {\n        require((oracles[msg.sender][0] == index) || (oracles[msg.sender][1] == index) || (oracles[msg.sender][2] == index), \"Index does not match oracle request\");\n\n\n        // CODE EXERCISE 3: Require that the response is being submitted for a request that is still open\n        bytes32 key = keccak256(abi.encodePacked(index, flight, timestamp));  /* Replace 0 with code to generate a key using index, flight and timestamp */\n        require(oracleResponses[key].isOpen, \"flight or timestamp do not match oracle response\");\n\n        oracleResponses[key].responses[statusId].push(msg.sender);\n\n        // Information isn't considered verified until at least MIN_RESPONSES\n        // oracles respond with the *** same *** information\n        if (oracleResponses[key].responses[statusId].length >= MIN_RESPONSES) {\n\n            // CODE EXERCISE 3: Prevent any more responses since MIN_RESPONSE threshold has been reached\n            /* Enter code here */\n\n            // CODE EXERCISE 3: Announce to the world that verified flight status information is available\n            /* Enter code here */\n            emit FlightStatusInfo(flight, timestamp, statusId, true);\n            // Save the flight information for posterity\n            bytes32 flightKey = keccak256(abi.encodePacked(flight, timestamp));\n            flights[flightKey] = FlightStatus(true, statusId);\n        } else {\n            // Oracle submitting response but MIN_RESPONSES threshold not yet reached\n\n            // CODE EXERCISE 3: Announce to the world that verified flight status information is available\n            /* Enter code here */\n            emit FlightStatusInfo(flight, timestamp, statusId, false);\n        }\n    }\n\n    /************************************ END: Oracle Callback ************************************/\n\n\n\n\n    /************************************ BEGIN: Utility Functions ************************************/\n\n    // Query the status of any flight\n    function viewFlightStatus\n                            (\n                                string calldata flight,\n                                uint256 timestamp\n                            )\n                            external\n                            view\n                            returns(uint8)\n    {\n            bytes32 flightKey = keccak256(abi.encodePacked(flight, timestamp));\n            require(flights[flightKey].hasStatus, \"Flight status not available\");\n\n            //bytes32 flightKey = keccak256(abi.encodePacked(flight, timestamp));\n            return flights[flightKey].status;\n    }\n\n\n    // Returns array of three non-duplicating integers from 0-9\n    function generateIndexes\n                            (                       \n                                address account         \n                            )\n                            internal\n                            returns(uint8[3] memory)\n    {\n        uint8[3] memory indexes;\n        indexes[0] = getRandomIndex(account);\n        \n        indexes[1] = indexes[0];\n        while(indexes[1] == indexes[0]) {\n            indexes[1] = getRandomIndex(account);\n        }\n\n        indexes[2] = indexes[1];\n        while((indexes[2] == indexes[0]) || (indexes[2] == indexes[1])) {\n            indexes[2] = getRandomIndex(account);\n        }\n\n        return indexes;\n    }\n\n    // Returns array of three non-duplicating integers from 0-9\n    function getRandomIndex\n                            (\n                                address account\n                            )\n                            internal\n                            returns (uint8)\n    {\n        uint8 maxValue = 10;\n\n        // Pseudo random number...the incrementing nonce adds variation\n        uint8 random = uint8(uint256(keccak256(abi.encodePacked(blockhash(block.number - nonce++), account))) % maxValue);\n\n        if (nonce > 250) {\n            nonce = 0;  // Can only fetch blockhashes for last 256 blocks so we adapt\n        }\n\n        return random;\n    }\n\n    /************************************ END: Utility Functions ************************************/\n\n    \n}\n\n",
  "sourcePath": "/Users/mounikabachu/Desktop/BCND-C6-Exercises/ExerciseC6D/contracts/ExerciseC6D/ExerciseC6D.sol",
  "compiler": {
    "name": "solc",
    "version": "0.5.16+commit.9c3226ce.Emscripten.clang"
  },
  "schemaVersion": "3.4.1",
  "updatedAt": "2021-07-24T21:47:20.216Z",
  "devdoc": {
    "methods": {}
  },
  "userdoc": {
    "methods": {
      "registerOracle()": {
        "notice": "********************************* BEGIN: Oracle Registration **********************************"
      },
      "submitOracleResponse(uint8,string,uint256,uint8)": {
        "notice": "********************************* BEGIN: Oracle Callback **********************************"
      },
      "viewFlightStatus(string,uint256)": {
        "notice": "********************************** BEGIN: Utility Functions ***********************************"
      }
    }
  }
}