{
  "contractName": "ExerciseC6C",
  "abi": [
    {
      "inputs": [],
      "payable": false,
      "stateMutability": "nonpayable",
      "type": "constructor"
    },
    {
      "constant": true,
      "inputs": [
        {
          "internalType": "string",
          "name": "id",
          "type": "string"
        }
      ],
      "name": "isEmployeeRegistered",
      "outputs": [
        {
          "internalType": "bool",
          "name": "",
          "type": "bool"
        }
      ],
      "payable": false,
      "stateMutability": "view",
      "type": "function"
    },
    {
      "constant": false,
      "inputs": [
        {
          "internalType": "string",
          "name": "id",
          "type": "string"
        },
        {
          "internalType": "bool",
          "name": "isAdmin",
          "type": "bool"
        },
        {
          "internalType": "address",
          "name": "wallet",
          "type": "address"
        }
      ],
      "name": "registerEmployee",
      "outputs": [],
      "payable": false,
      "stateMutability": "nonpayable",
      "type": "function"
    },
    {
      "constant": true,
      "inputs": [
        {
          "internalType": "string",
          "name": "id",
          "type": "string"
        }
      ],
      "name": "getEmployeeBonus",
      "outputs": [
        {
          "internalType": "uint256",
          "name": "",
          "type": "uint256"
        }
      ],
      "payable": false,
      "stateMutability": "view",
      "type": "function"
    },
    {
      "constant": false,
      "inputs": [
        {
          "internalType": "string",
          "name": "id",
          "type": "string"
        },
        {
          "internalType": "uint256",
          "name": "sales",
          "type": "uint256"
        },
        {
          "internalType": "uint256",
          "name": "bonus",
          "type": "uint256"
        }
      ],
      "name": "updateEmployee",
      "outputs": [],
      "payable": false,
      "stateMutability": "nonpayable",
      "type": "function"
    },
    {
      "constant": false,
      "inputs": [
        {
          "internalType": "address",
          "name": "dataContract",
          "type": "address"
        }
      ],
      "name": "authorizedContract",
      "outputs": [],
      "payable": false,
      "stateMutability": "nonpayable",
      "type": "function"
    },
    {
      "constant": false,
      "inputs": [
        {
          "internalType": "address",
          "name": "dataContract",
          "type": "address"
        }
      ],
      "name": "deauthorizedContract",
      "outputs": [],
      "payable": false,
      "stateMutability": "nonpayable",
      "type": "function"
    }
  ],
  "bytecode": "0x608060405234801561001057600080fd5b50336000806101000a81548173ffffffffffffffffffffffffffffffffffffffff021916908373ffffffffffffffffffffffffffffffffffffffff160217905550610be7806100606000396000f3fe608060405234801561001057600080fd5b50600436106100625760003560e01c8063228f25dc1461006757806356b35dd51461010c5780638b2226a014610199578063c189754c146101dd578063ea20f20a14610221578063f6f2dfcb146102b2575b600080fd5b61010a6004803603606081101561007d57600080fd5b810190808035906020019064010000000081111561009a57600080fd5b8201836020820111156100ac57600080fd5b803590602001918460018302840111640100000000831117156100ce57600080fd5b9091929391929390803515159060200190929190803573ffffffffffffffffffffffffffffffffffffffff16906020019092919050505061033f565b005b6101976004803603606081101561012257600080fd5b810190808035906020019064010000000081111561013f57600080fd5b82018360208201111561015157600080fd5b8035906020019184600183028401116401000000008311171561017357600080fd5b90919293919293908035906020019092919080359060200190929190505050610622565b005b6101db600480360360208110156101af57600080fd5b81019080803573ffffffffffffffffffffffffffffffffffffffff1690602001909291905050506107a8565b005b61021f600480360360208110156101f357600080fd5b81019080803573ffffffffffffffffffffffffffffffffffffffff1690602001909291905050506108b0565b005b6102986004803603602081101561023757600080fd5b810190808035906020019064010000000081111561025457600080fd5b82018360208201111561026657600080fd5b8035906020019184600183028401116401000000008311171561028857600080fd5b90919293919293905050506109ba565b604051808215151515815260200191505060405180910390f35b610329600480360360208110156102c857600080fd5b81019080803590602001906401000000008111156102e557600080fd5b8201836020820111156102f757600080fd5b8035906020019184600183028401116401000000008311171561031957600080fd5b90919293919293905050506109fc565b6040518082815260200191505060405180910390f35b6000809054906101000a900473ffffffffffffffffffffffffffffffffffffffff1673ffffffffffffffffffffffffffffffffffffffff163373ffffffffffffffffffffffffffffffffffffffff1614610401576040517f08c379a000000000000000000000000000000000000000000000000000000000815260040180806020018281038252601c8152602001807f43616c6c6572206973206e6f7420636f6e7472616374206f776e65720000000081525060200191505060405180910390fd5b60018484604051808383808284378083019250505092505050908152602001604051809103902060010160009054906101000a900460ff16156104ac576040517f08c379a000000000000000000000000000000000000000000000000000000000815260040180806020018281038252601f8152602001807f456d706c6f79656520697320616c726561647920726567697374657265642e0081525060200191505060405180910390fd5b6040518060c0016040528085858080601f016020809104026020016040519081016040528093929190818152602001838380828437600081840152601f19601f820116905080830192505050505050508152602001600115158152602001831515815260200160008152602001600081526020018273ffffffffffffffffffffffffffffffffffffffff16815250600185856040518083838082843780830192505050925050509081526020016040518091039020600082015181600001908051906020019061057d929190610b0d565b5060208201518160010160006101000a81548160ff02191690831515021790555060408201518160010160016101000a81548160ff021916908315150217905550606082015181600201556080820151816003015560a08201518160040160006101000a81548173ffffffffffffffffffffffffffffffffffffffff021916908373ffffffffffffffffffffffffffffffffffffffff16021790555090505050505050565b60018484604051808383808284378083019250505092505050908152602001604051809103902060010160009054906101000a900460ff166106cc576040517f08c379a000000000000000000000000000000000000000000000000000000000815260040180806020018281038252601b8152602001807f456d706c6f796565206973206e6f7420726567697374657265642e000000000081525060200191505060405180910390fd5b6107098260018686604051808383808284378083019250505092505050908152602001604051809103902060020154610af390919063ffffffff16565b600185856040518083838082843780830192505050925050509081526020016040518091039020600201819055506107748160018686604051808383808284378083019250505092505050908152602001604051809103902060030154610af390919063ffffffff16565b6001858560405180838380828437808301925050509250505090815260200160405180910390206003018190555050505050565b6000809054906101000a900473ffffffffffffffffffffffffffffffffffffffff1673ffffffffffffffffffffffffffffffffffffffff163373ffffffffffffffffffffffffffffffffffffffff161461086a576040517f08c379a000000000000000000000000000000000000000000000000000000000815260040180806020018281038252601c8152602001807f43616c6c6572206973206e6f7420636f6e7472616374206f776e65720000000081525060200191505060405180910390fd5b600260008273ffffffffffffffffffffffffffffffffffffffff1673ffffffffffffffffffffffffffffffffffffffff1681526020019081526020016000206000905550565b6000809054906101000a900473ffffffffffffffffffffffffffffffffffffffff1673ffffffffffffffffffffffffffffffffffffffff163373ffffffffffffffffffffffffffffffffffffffff1614610972576040517f08c379a000000000000000000000000000000000000000000000000000000000815260040180806020018281038252601c8152602001807f43616c6c6572206973206e6f7420636f6e7472616374206f776e65720000000081525060200191505060405180910390fd5b6001600260008373ffffffffffffffffffffffffffffffffffffffff1673ffffffffffffffffffffffffffffffffffffffff1681526020019081526020016000208190555050565b600060018383604051808383808284378083019250505092505050908152602001604051809103902060010160009054906101000a900460ff16905092915050565b60008060009054906101000a900473ffffffffffffffffffffffffffffffffffffffff1673ffffffffffffffffffffffffffffffffffffffff163373ffffffffffffffffffffffffffffffffffffffff1614610ac0576040517f08c379a000000000000000000000000000000000000000000000000000000000815260040180806020018281038252601c8152602001807f43616c6c6572206973206e6f7420636f6e7472616374206f776e65720000000081525060200191505060405180910390fd5b60018383604051808383808284378083019250505092505050908152602001604051809103902060030154905092915050565b6000818301905082811015610b0457fe5b80905092915050565b828054600181600116156101000203166002900490600052602060002090601f016020900481019282601f10610b4e57805160ff1916838001178555610b7c565b82800160010185558215610b7c579182015b82811115610b7b578251825591602001919060010190610b60565b5b509050610b899190610b8d565b5090565b610baf91905b80821115610bab576000816000905550600101610b93565b5090565b9056fea265627a7a723158208a285eb0c1d595a4caed24a561e72a9c6f204cb500101074d1d79811f42093cc64736f6c63430005100032",
  "source": "pragma solidity ^0.5.16;\n\n// It's important to avoid vulnerabilities due to numeric overflow bugs\n// OpenZeppelin's SafeMath library, when used correctly, protects agains such bugs\n// More info: https://www.nccgroup.trust/us/about-us/newsroom-and-events/blog/2018/november/smart-contract-insecurity-bad-arithmetic/\n\nimport \"../../node_modules/openzeppelin-solidity/contracts/math/SafeMath.sol\";\n\n\ncontract ExerciseC6C {\n    using SafeMath for uint256; // Allow SafeMath functions to be called for all uint256 types (similar to \"prototype\" in Javascript)\n\n    /********************************************************************************************/\n    /*                                       DATA VARIABLES                                     */\n    /********************************************************************************************/\n\n    struct Profile {\n        string id;\n        bool isRegistered;\n        bool isAdmin;\n        uint256 sales;\n        uint256 bonus;\n        address wallet;\n    }\n\n    address private contractOwner;              // Account used to deploy contract\n    mapping(string => Profile) employees;      // Mapping for storing employees\n    mapping(address => uint256) private authorizedContracts;\n\n    /********************************************************************************************/\n    /*                                       EVENT DEFINITIONS                                  */\n    /********************************************************************************************/\n\n    // No events\n\n    /**\n    * @dev Constructor\n    *      The deploying account becomes contractOwner\n    */\n    constructor\n                                (\n                                ) \n                                public \n    {\n        contractOwner = msg.sender;\n    }\n\n    /********************************************************************************************/\n    /*                                       FUNCTION MODIFIERS                                 */\n    /********************************************************************************************/\n\n    // Modifiers help avoid duplication of code. They are typically used to validate something\n    // before a function is allowed to be executed.\n\n    /**\n    * @dev Modifier that requires the \"ContractOwner\" account to be the function caller\n    */\n    modifier requireContractOwner()\n    {\n        require(msg.sender == contractOwner, \"Caller is not contract owner\");\n        _;\n    }\n\n    modifier isCallerAuthorized()\n    {\n          require(authorizedContracts[msg.sender] == 1, \" Caller is not authorized\");\n          _;\n    }\n\n    /********************************************************************************************/\n    /*                                       UTILITY FUNCTIONS                                  */\n    /********************************************************************************************/\n\n   /**\n    * @dev Check if an employee is registered\n    *\n    * @return A bool that indicates if the employee is registered\n    */   \n    function isEmployeeRegistered\n                            (\n                                string calldata id\n                            )\n                            external\n                            view\n                            returns(bool)\n    {\n        return employees[id].isRegistered;\n    }\n\n    /********************************************************************************************/\n    /*                                     SMART CONTRACT FUNCTIONS                             */\n    /********************************************************************************************/\n\n    function registerEmployee\n                                (\n                                    string calldata id,\n                                    bool isAdmin,\n                                    address wallet\n                                )\n                                external\n                                requireContractOwner\n    {\n        require(!employees[id].isRegistered, \"Employee is already registered.\");\n\n        employees[id] = Profile({\n                                        id: id,\n                                        isRegistered: true,\n                                        isAdmin: isAdmin,\n                                        sales: 0,\n                                        bonus: 0,\n                                        wallet: wallet\n                                });\n    }\n\n    function getEmployeeBonus\n                            (\n                                string calldata id\n                            )\n                            external\n                            view\n                            requireContractOwner\n                            returns(uint256)\n    {\n        return employees[id].bonus;\n    }\n\n    function updateEmployee\n                                (\n                                    string calldata id,\n                                    uint256 sales,\n                                    uint256 bonus\n\n                                )\n                                external\n    {\n        require(employees[id].isRegistered, \"Employee is not registered.\");\n\n        employees[id].sales = employees[id].sales.add(sales);\n        employees[id].bonus = employees[id].bonus.add(bonus);\n\n    }\n    \n    function authorizedContract(address dataContract) external requireContractOwner\n                                {\n                                    authorizedContracts[dataContract] = 1;\n                                }\n\n    function deauthorizedContract(address dataContract) external requireContractOwner\n                                {\n                                    delete authorizedContracts[dataContract];\n                                }\n\n}",
  "sourcePath": "/Users/mounikabachu/Desktop/BCND-C6-Exercises/contracts/ExerciseC6C/ExerciseC6C.sol",
  "compiler": {
    "name": "solc",
    "version": "0.5.16+commit.9c3226ce.Emscripten.clang"
  },
  "schemaVersion": "3.4.1",
  "updatedAt": "2021-07-22T02:54:38.271Z",
  "devdoc": {
    "methods": {
      "constructor": {
        "details": "Constructor     The deploying account becomes contractOwner"
      },
      "isEmployeeRegistered(string)": {
        "details": "Check if an employee is registered",
        "return": "A bool that indicates if the employee is registered"
      }
    }
  },
  "userdoc": {
    "methods": {
      "registerEmployee(string,bool,address)": {
        "notice": "*****************************************************************************************"
      }
    }
  }
}